{
  "contractName": "SmartShare",
  "abi": [
    {
      "inputs": [
        {
          "internalType": "uint256",
          "name": "",
          "type": "uint256"
        }
      ],
      "name": "files",
      "outputs": [
        {
          "internalType": "uint256",
          "name": "id",
          "type": "uint256"
        },
        {
          "internalType": "string",
          "name": "cidHash",
          "type": "string"
        },
        {
          "internalType": "string",
          "name": "name",
          "type": "string"
        },
        {
          "internalType": "address",
          "name": "owner",
          "type": "address"
        }
      ],
      "stateMutability": "view",
      "type": "function",
      "constant": true
    },
    {
      "inputs": [],
      "name": "imageCount",
      "outputs": [
        {
          "internalType": "uint256",
          "name": "",
          "type": "uint256"
        }
      ],
      "stateMutability": "view",
      "type": "function",
      "constant": true
    },
    {
      "inputs": [
        {
          "internalType": "address",
          "name": "",
          "type": "address"
        },
        {
          "internalType": "uint256",
          "name": "",
          "type": "uint256"
        }
      ],
      "name": "userData",
      "outputs": [
        {
          "internalType": "uint256",
          "name": "",
          "type": "uint256"
        }
      ],
      "stateMutability": "view",
      "type": "function",
      "constant": true
    },
    {
      "inputs": [
        {
          "internalType": "string",
          "name": "_cidHash",
          "type": "string"
        },
        {
          "internalType": "string",
          "name": "_name",
          "type": "string"
        }
      ],
      "name": "uploadFiles",
      "outputs": [],
      "stateMutability": "nonpayable",
      "type": "function"
    },
    {
      "inputs": [],
      "name": "retrieveUserFiles",
      "outputs": [
        {
          "components": [
            {
              "internalType": "uint256",
              "name": "id",
              "type": "uint256"
            },
            {
              "internalType": "string",
              "name": "cidHash",
              "type": "string"
            },
            {
              "internalType": "string",
              "name": "name",
              "type": "string"
            },
            {
              "internalType": "address",
              "name": "owner",
              "type": "address"
            }
          ],
          "internalType": "struct SmartShare.File[]",
          "name": "",
          "type": "tuple[]"
        }
      ],
      "stateMutability": "view",
      "type": "function",
      "constant": true
    },
    {
      "inputs": [
        {
          "internalType": "uint256",
          "name": "_id",
          "type": "uint256"
        },
        {
          "internalType": "string",
          "name": "_cid",
          "type": "string"
        }
      ],
      "name": "retrieveSingleFile",
      "outputs": [
        {
          "components": [
            {
              "internalType": "uint256",
              "name": "id",
              "type": "uint256"
            },
            {
              "internalType": "string",
              "name": "cidHash",
              "type": "string"
            },
            {
              "internalType": "string",
              "name": "name",
              "type": "string"
            },
            {
              "internalType": "address",
              "name": "owner",
              "type": "address"
            }
          ],
          "internalType": "struct SmartShare.File",
          "name": "",
          "type": "tuple"
        }
      ],
      "stateMutability": "view",
      "type": "function",
      "constant": true
    }
  ],
  "bytecode": "0x60806040526000805534801561001457600080fd5b506112da806100246000396000f3fe608060405234801561001057600080fd5b50600436106100625760003560e01c806307539f0b146100675780630b9e84e9146100975780633c05eca1146100b357806392053b63146100e3578063cb7724be14610101578063f4c714b41461011f575b600080fd5b610081600480360381019061007c9190610bf6565b610152565b60405161008e9190610ec2565b60405180910390f35b6100b160048036038101906100ac9190610b51565b61036c565b005b6100cd60048036038101906100c89190610b11565b6104e6565b6040516100da9190610ee4565b60405180910390f35b6100eb610517565b6040516100f89190610ee4565b60405180910390f35b61010961051d565b6040516101169190610e80565b60405180910390f35b61013960048036038101906101349190610bc9565b610826565b6040516101499493929190610eff565b60405180910390f35b61015a610996565b60006001808561016a919061100e565b8154811061017b5761017a6111ca565b5b9060005260206000209060040201604051806080016040529081600082015481526020016001820180546101ae906110c0565b80601f01602080910402602001604051908101604052809291908181526020018280546101da906110c0565b80156102275780601f106101fc57610100808354040283529160200191610227565b820191906000526020600020905b81548152906001019060200180831161020a57829003601f168201915b50505050508152602001600282018054610240906110c0565b80601f016020809104026020016040519081016040528092919081815260200182805461026c906110c0565b80156102b95780601f1061028e576101008083540402835291602001916102b9565b820191906000526020600020905b81548152906001019060200180831161029c57829003601f168201915b505050505081526020016003820160009054906101000a900473ffffffffffffffffffffffffffffffffffffffff1673ffffffffffffffffffffffffffffffffffffffff1673ffffffffffffffffffffffffffffffffffffffff16815250509050806020015151835114610362576040517f08c379a000000000000000000000000000000000000000000000000000000000815260040161035990610ea2565b60405180910390fd5b8091505092915050565b60008081548092919061037e90611123565b91905055506000604051806080016040528060005481526020018481526020018381526020013373ffffffffffffffffffffffffffffffffffffffff16815250905060018190806001815401808255809150506001900390600052602060002090600402016000909190919091506000820151816000015560208201518160010190805190602001906104129291906109d4565b50604082015181600201908051906020019061042f9291906109d4565b5060608201518160030160006101000a81548173ffffffffffffffffffffffffffffffffffffffff021916908373ffffffffffffffffffffffffffffffffffffffff1602179055505050600260003373ffffffffffffffffffffffffffffffffffffffff1673ffffffffffffffffffffffffffffffffffffffff1681526020019081526020016000206000549080600181540180825580915050600190039060005260206000200160009091909190915055505050565b6002602052816000526040600020818154811061050257600080fd5b90600052602060002001600091509150505481565b60005481565b606060003390506000600260008373ffffffffffffffffffffffffffffffffffffffff1673ffffffffffffffffffffffffffffffffffffffff16815260200190815260200160002080549050905060008167ffffffffffffffff811115610587576105866111f9565b5b6040519080825280602002602001820160405280156105c057816020015b6105ad610996565b8152602001906001900390816105a55790505b50905060005b8281101561081c576000600260008673ffffffffffffffffffffffffffffffffffffffff1673ffffffffffffffffffffffffffffffffffffffff1681526020019081526020016000208281548110610621576106206111ca565b5b906000526020600020015490506001808261063c919061100e565b8154811061064d5761064c6111ca565b5b906000526020600020906004020160405180608001604052908160008201548152602001600182018054610680906110c0565b80601f01602080910402602001604051908101604052809291908181526020018280546106ac906110c0565b80156106f95780601f106106ce576101008083540402835291602001916106f9565b820191906000526020600020905b8154815290600101906020018083116106dc57829003601f168201915b50505050508152602001600282018054610712906110c0565b80601f016020809104026020016040519081016040528092919081815260200182805461073e906110c0565b801561078b5780601f106107605761010080835404028352916020019161078b565b820191906000526020600020905b81548152906001019060200180831161076e57829003601f168201915b505050505081526020016003820160009054906101000a900473ffffffffffffffffffffffffffffffffffffffff1673ffffffffffffffffffffffffffffffffffffffff1673ffffffffffffffffffffffffffffffffffffffff16815250508383815181106107fd576107fc6111ca565b5b602002602001018190525050808061081490611123565b9150506105c6565b5080935050505090565b6001818154811061083657600080fd5b906000526020600020906004020160009150905080600001549080600101805461085f906110c0565b80601f016020809104026020016040519081016040528092919081815260200182805461088b906110c0565b80156108d85780601f106108ad576101008083540402835291602001916108d8565b820191906000526020600020905b8154815290600101906020018083116108bb57829003601f168201915b5050505050908060020180546108ed906110c0565b80601f0160208091040260200160405190810160405280929190818152602001828054610919906110c0565b80156109665780601f1061093b57610100808354040283529160200191610966565b820191906000526020600020905b81548152906001019060200180831161094957829003601f168201915b5050505050908060030160009054906101000a900473ffffffffffffffffffffffffffffffffffffffff16905084565b6040518060800160405280600081526020016060815260200160608152602001600073ffffffffffffffffffffffffffffffffffffffff1681525090565b8280546109e0906110c0565b90600052602060002090601f016020900481019282610a025760008555610a49565b82601f10610a1b57805160ff1916838001178555610a49565b82800160010185558215610a49579182015b82811115610a48578251825591602001919060010190610a2d565b5b509050610a569190610a5a565b5090565b5b80821115610a73576000816000905550600101610a5b565b5090565b6000610a8a610a8584610f77565b610f52565b905082815260208101848484011115610aa657610aa561122d565b5b610ab184828561107e565b509392505050565b600081359050610ac881611276565b92915050565b600082601f830112610ae357610ae2611228565b5b8135610af3848260208601610a77565b91505092915050565b600081359050610b0b8161128d565b92915050565b60008060408385031215610b2857610b27611237565b5b6000610b3685828601610ab9565b9250506020610b4785828601610afc565b9150509250929050565b60008060408385031215610b6857610b67611237565b5b600083013567ffffffffffffffff811115610b8657610b85611232565b5b610b9285828601610ace565b925050602083013567ffffffffffffffff811115610bb357610bb2611232565b5b610bbf85828601610ace565b9150509250929050565b600060208284031215610bdf57610bde611237565b5b6000610bed84828501610afc565b91505092915050565b60008060408385031215610c0d57610c0c611237565b5b6000610c1b85828601610afc565b925050602083013567ffffffffffffffff811115610c3c57610c3b611232565b5b610c4885828601610ace565b9150509250929050565b6000610c5e8383610d8e565b905092915050565b610c6f81611042565b82525050565b610c7e81611042565b82525050565b6000610c8f82610fb8565b610c998185610fdb565b935083602082028501610cab85610fa8565b8060005b85811015610ce75784840389528151610cc88582610c52565b9450610cd383610fce565b925060208a01995050600181019050610caf565b50829750879550505050505092915050565b6000610d0482610fc3565b610d0e8185610fec565b9350610d1e81856020860161108d565b610d278161123c565b840191505092915050565b6000610d3d82610fc3565b610d478185610ffd565b9350610d5781856020860161108d565b610d608161123c565b840191505092915050565b6000610d78601283610ffd565b9150610d838261124d565b602082019050919050565b6000608083016000830151610da66000860182610e62565b5060208301518482036020860152610dbe8282610cf9565b91505060408301518482036040860152610dd88282610cf9565b9150506060830151610ded6060860182610c66565b508091505092915050565b6000608083016000830151610e106000860182610e62565b5060208301518482036020860152610e288282610cf9565b91505060408301518482036040860152610e428282610cf9565b9150506060830151610e576060860182610c66565b508091505092915050565b610e6b81611074565b82525050565b610e7a81611074565b82525050565b60006020820190508181036000830152610e9a8184610c84565b905092915050565b60006020820190508181036000830152610ebb81610d6b565b9050919050565b60006020820190508181036000830152610edc8184610df8565b905092915050565b6000602082019050610ef96000830184610e71565b92915050565b6000608082019050610f146000830187610e71565b8181036020830152610f268186610d32565b90508181036040830152610f3a8185610d32565b9050610f496060830184610c75565b95945050505050565b6000610f5c610f6d565b9050610f6882826110f2565b919050565b6000604051905090565b600067ffffffffffffffff821115610f9257610f916111f9565b5b610f9b8261123c565b9050602081019050919050565b6000819050602082019050919050565b600081519050919050565b600081519050919050565b6000602082019050919050565b600082825260208201905092915050565b600082825260208201905092915050565b600082825260208201905092915050565b600061101982611074565b915061102483611074565b9250828210156110375761103661116c565b5b828203905092915050565b600061104d82611054565b9050919050565b600073ffffffffffffffffffffffffffffffffffffffff82169050919050565b6000819050919050565b82818337600083830152505050565b60005b838110156110ab578082015181840152602081019050611090565b838111156110ba576000848401525b50505050565b600060028204905060018216806110d857607f821691505b602082108114156110ec576110eb61119b565b5b50919050565b6110fb8261123c565b810181811067ffffffffffffffff8211171561111a576111196111f9565b5b80604052505050565b600061112e82611074565b91507fffffffffffffffffffffffffffffffffffffffffffffffffffffffffffffffff8214156111615761116061116c565b5b600182019050919050565b7f4e487b7100000000000000000000000000000000000000000000000000000000600052601160045260246000fd5b7f4e487b7100000000000000000000000000000000000000000000000000000000600052602260045260246000fd5b7f4e487b7100000000000000000000000000000000000000000000000000000000600052603260045260246000fd5b7f4e487b7100000000000000000000000000000000000000000000000000000000600052604160045260246000fd5b600080fd5b600080fd5b600080fd5b600080fd5b6000601f19601f8301169050919050565b7f496e76616c696420434944207061737365640000000000000000000000000000600082015250565b61127f81611042565b811461128a57600080fd5b50565b61129681611074565b81146112a157600080fd5b5056fea264697066735822122049dca35ceeda85cde35d292c82f3684c5dfa938323459e6a8abd86b981db5ece64736f6c63430008070033",
  "immutableReferences": {},
  "source": "// SPDX-License-Identifier: MIT\r\npragma solidity ^0.8.7;\r\n\r\ncontract SmartShare{\r\n\r\n    uint public imageCount = 0;\r\n\r\n    struct File{\r\n        uint id;\r\n        string cidHash;\r\n        string name;\r\n        address owner;\r\n    }\r\n\r\n    File[] public files;\r\n    \r\n    mapping(address => uint[]) public userData;\r\n\r\n    function uploadFiles(string memory _cidHash,string memory _name) public{\r\n        imageCount++;\r\n        File memory file = File(imageCount,_cidHash,_name,msg.sender);\r\n        files.push(file);\r\n        userData[msg.sender].push(imageCount);\r\n    }\r\n\r\n    function retrieveUserFiles() public view returns(File[] memory){\r\n        address userAddress = msg.sender;\r\n        uint len = userData[userAddress].length;\r\n        File[] memory allFiles = new File[](len);\r\n        for(uint i=0;i<len;i++){\r\n            uint id = userData[userAddress][i];\r\n            allFiles[i] = files[id-1];\r\n        }\r\n        return allFiles;\r\n    }\r\n\r\n    function retrieveSingleFile(uint _id,string memory _cid) public view returns(File memory){\r\n        File memory file = files[_id-1];\r\n        require(bytes(_cid).length==bytes(file.cidHash).length,\"Invalid CID passed\");\r\n        return file;\r\n    }\r\n\r\n}",
  "sourcePath": "C:\\Users\\sarth\\Desktop\\Smart-share-backend\\contracts\\SmartShareContract.sol",
  "compiler": {
    "name": "solc",
    "version": "0.8.7+commit.e28d00a7.Emscripten.clang"
  },
  "schemaVersion": "3.4.7",
  "updatedAt": "2022-07-14T14:30:59.499Z",
  "networkType": "ethereum",
  "devdoc": {
    "kind": "dev",
    "methods": {},
    "version": 1
  },
  "userdoc": {
    "kind": "user",
    "methods": {},
    "version": 1
  }
}