{
  "contractName": "SmartShare",
  "abi": [
    {
      "inputs": [
        {
          "internalType": "uint256",
          "name": "",
          "type": "uint256"
        }
      ],
      "name": "files",
      "outputs": [
        {
          "internalType": "uint256",
          "name": "id",
          "type": "uint256"
        },
        {
          "internalType": "string",
          "name": "cidHash",
          "type": "string"
        },
        {
          "internalType": "string",
          "name": "name",
          "type": "string"
        },
        {
          "internalType": "address",
          "name": "owner",
          "type": "address"
        }
      ],
      "stateMutability": "view",
      "type": "function"
    },
    {
      "inputs": [],
      "name": "imageCount",
      "outputs": [
        {
          "internalType": "uint256",
          "name": "",
          "type": "uint256"
        }
      ],
      "stateMutability": "view",
      "type": "function"
    },
    {
      "inputs": [
        {
          "internalType": "address",
          "name": "",
          "type": "address"
        }
      ],
      "name": "keyStore",
      "outputs": [
        {
          "internalType": "string",
          "name": "publicKey",
          "type": "string"
        },
        {
          "internalType": "string",
          "name": "privateKey",
          "type": "string"
        }
      ],
      "stateMutability": "view",
      "type": "function"
    },
    {
      "inputs": [
        {
          "internalType": "address",
          "name": "",
          "type": "address"
        },
        {
          "internalType": "uint256",
          "name": "",
          "type": "uint256"
        }
      ],
      "name": "received",
      "outputs": [
        {
          "internalType": "uint256",
          "name": "",
          "type": "uint256"
        }
      ],
      "stateMutability": "view",
      "type": "function"
    },
    {
      "inputs": [
        {
          "internalType": "address",
          "name": "",
          "type": "address"
        },
        {
          "internalType": "uint256",
          "name": "",
          "type": "uint256"
        }
      ],
      "name": "userData",
      "outputs": [
        {
          "internalType": "uint256",
          "name": "",
          "type": "uint256"
        }
      ],
      "stateMutability": "view",
      "type": "function"
    },
    {
      "inputs": [],
      "name": "checkUser",
      "outputs": [
        {
          "components": [
            {
              "internalType": "string",
              "name": "publicKey",
              "type": "string"
            },
            {
              "internalType": "string",
              "name": "privateKey",
              "type": "string"
            }
          ],
          "internalType": "struct SmartShare.keyPair",
          "name": "",
          "type": "tuple"
        }
      ],
      "stateMutability": "view",
      "type": "function"
    },
    {
      "inputs": [
        {
          "internalType": "string",
          "name": "publicKey",
          "type": "string"
        },
        {
          "internalType": "string",
          "name": "privateKey",
          "type": "string"
        }
      ],
      "name": "addUser",
      "outputs": [],
      "stateMutability": "nonpayable",
      "type": "function"
    },
    {
      "inputs": [
        {
          "internalType": "string",
          "name": "_cidHash",
          "type": "string"
        },
        {
          "internalType": "string",
          "name": "_name",
          "type": "string"
        }
      ],
      "name": "uploadFiles",
      "outputs": [],
      "stateMutability": "nonpayable",
      "type": "function"
    },
    {
      "inputs": [
        {
          "internalType": "address",
          "name": "_receiver",
          "type": "address"
        },
        {
          "internalType": "uint256",
          "name": "encrypted_id",
          "type": "uint256"
        }
      ],
      "name": "shareFile",
      "outputs": [],
      "stateMutability": "nonpayable",
      "type": "function"
    },
    {
      "inputs": [],
      "name": "retrieveUserFiles",
      "outputs": [
        {
          "components": [
            {
              "internalType": "uint256",
              "name": "id",
              "type": "uint256"
            },
            {
              "internalType": "string",
              "name": "cidHash",
              "type": "string"
            },
            {
              "internalType": "string",
              "name": "name",
              "type": "string"
            },
            {
              "internalType": "address",
              "name": "owner",
              "type": "address"
            }
          ],
          "internalType": "struct SmartShare.File[]",
          "name": "",
          "type": "tuple[]"
        }
      ],
      "stateMutability": "view",
      "type": "function"
    },
    {
      "inputs": [],
      "name": "retrieveReceivedFiles",
      "outputs": [
        {
          "components": [
            {
              "internalType": "uint256",
              "name": "id",
              "type": "uint256"
            },
            {
              "internalType": "string",
              "name": "cidHash",
              "type": "string"
            },
            {
              "internalType": "string",
              "name": "name",
              "type": "string"
            },
            {
              "internalType": "address",
              "name": "owner",
              "type": "address"
            }
          ],
          "internalType": "struct SmartShare.File[]",
          "name": "",
          "type": "tuple[]"
        }
      ],
      "stateMutability": "view",
      "type": "function"
    },
    {
      "inputs": [
        {
          "internalType": "uint256",
          "name": "_id",
          "type": "uint256"
        },
        {
          "internalType": "string",
          "name": "_cid",
          "type": "string"
        }
      ],
      "name": "retrieveSingleFile",
      "outputs": [
        {
          "components": [
            {
              "internalType": "uint256",
              "name": "id",
              "type": "uint256"
            },
            {
              "internalType": "string",
              "name": "cidHash",
              "type": "string"
            },
            {
              "internalType": "string",
              "name": "name",
              "type": "string"
            },
            {
              "internalType": "address",
              "name": "owner",
              "type": "address"
            }
          ],
          "internalType": "struct SmartShare.File",
          "name": "",
          "type": "tuple"
        }
      ],
      "stateMutability": "view",
      "type": "function"
    }
  ],
  "bytecode": "0x60806040526000805534801561001457600080fd5b50611be5806100246000396000f3fe608060405234801561001057600080fd5b50600436106100b45760003560e01c8063c11126e511610071578063c11126e5146101a0578063c1562547146101bc578063cb7724be146101da578063ccb08e03146101f8578063f11e547d14610216578063f4c714b414610246576100b4565b806307539f0b146100b9578063079eaf34146100e95780630b9e84e9146101055780633c05eca11461012157806354ac6e371461015157806392053b6314610182575b600080fd5b6100d360048036038101906100ce9190611464565b610279565b6040516100e091906117ab565b60405180910390f35b61010360048036038101906100fe91906113bf565b610493565b005b61011f600480360381019061011a91906113bf565b610534565b005b61013b6004803603810190610136919061137f565b6106ae565b60405161014891906117ef565b60405180910390f35b61016b60048036038101906101669190611352565b6106df565b604051610179929190611754565b60405180910390f35b61018a610813565b60405161019791906117ef565b60405180910390f35b6101ba60048036038101906101b5919061137f565b610819565b005b6101c4610883565b6040516101d191906117cd565b60405180910390f35b6101e2610a0a565b6040516101ef9190611732565b60405180910390f35b610200610d13565b60405161020d9190611732565b60405180910390f35b610230600480360381019061022b919061137f565b61101c565b60405161023d91906117ef565b60405180910390f35b610260600480360381019061025b9190611437565b61104d565b604051610270949392919061180a565b60405180910390f35b6102816111bd565b6000600180856102919190611919565b815481106102a2576102a1611ad5565b5b9060005260206000209060040201604051806080016040529081600082015481526020016001820180546102d5906119cb565b80601f0160208091040260200160405190810160405280929190818152602001828054610301906119cb565b801561034e5780601f106103235761010080835404028352916020019161034e565b820191906000526020600020905b81548152906001019060200180831161033157829003601f168201915b50505050508152602001600282018054610367906119cb565b80601f0160208091040260200160405190810160405280929190818152602001828054610393906119cb565b80156103e05780601f106103b5576101008083540402835291602001916103e0565b820191906000526020600020905b8154815290600101906020018083116103c357829003601f168201915b505050505081526020016003820160009054906101000a900473ffffffffffffffffffffffffffffffffffffffff1673ffffffffffffffffffffffffffffffffffffffff1673ffffffffffffffffffffffffffffffffffffffff16815250509050806020015151835114610489576040517f08c379a00000000000000000000000000000000000000000000000000000000081526004016104809061178b565b60405180910390fd5b8091505092915050565b60003390506000604051806040016040528085815260200184815250905080600460008473ffffffffffffffffffffffffffffffffffffffff1673ffffffffffffffffffffffffffffffffffffffff168152602001908152602001600020600082015181600001908051906020019061050d9291906111fb565b50602082015181600101908051906020019061052a9291906111fb565b5090505050505050565b60008081548092919061054690611a2e565b91905055506000604051806080016040528060005481526020018481526020018381526020013373ffffffffffffffffffffffffffffffffffffffff16815250905060018190806001815401808255809150506001900390600052602060002090600402016000909190919091506000820151816000015560208201518160010190805190602001906105da9291906111fb565b5060408201518160020190805190602001906105f79291906111fb565b5060608201518160030160006101000a81548173ffffffffffffffffffffffffffffffffffffffff021916908373ffffffffffffffffffffffffffffffffffffffff1602179055505050600260003373ffffffffffffffffffffffffffffffffffffffff1673ffffffffffffffffffffffffffffffffffffffff1681526020019081526020016000206000549080600181540180825580915050600190039060005260206000200160009091909190915055505050565b600260205281600052604060002081815481106106ca57600080fd5b90600052602060002001600091509150505481565b6004602052806000526040600020600091509050806000018054610702906119cb565b80601f016020809104026020016040519081016040528092919081815260200182805461072e906119cb565b801561077b5780601f106107505761010080835404028352916020019161077b565b820191906000526020600020905b81548152906001019060200180831161075e57829003601f168201915b505050505090806001018054610790906119cb565b80601f01602080910402602001604051908101604052809291908181526020018280546107bc906119cb565b80156108095780601f106107de57610100808354040283529160200191610809565b820191906000526020600020905b8154815290600101906020018083116107ec57829003601f168201915b5050505050905082565b60005481565b600360008373ffffffffffffffffffffffffffffffffffffffff1673ffffffffffffffffffffffffffffffffffffffff1681526020019081526020016000208190806001815401808255809150506001900390600052602060002001600090919091909150555050565b61088b611281565b60003390506000600460008373ffffffffffffffffffffffffffffffffffffffff1673ffffffffffffffffffffffffffffffffffffffff1681526020019081526020016000206040518060400160405290816000820180546108ec906119cb565b80601f0160208091040260200160405190810160405280929190818152602001828054610918906119cb565b80156109655780601f1061093a57610100808354040283529160200191610965565b820191906000526020600020905b81548152906001019060200180831161094857829003601f168201915b5050505050815260200160018201805461097e906119cb565b80601f01602080910402602001604051908101604052809291908181526020018280546109aa906119cb565b80156109f75780601f106109cc576101008083540402835291602001916109f7565b820191906000526020600020905b8154815290600101906020018083116109da57829003601f168201915b5050505050815250509050809250505090565b606060003390506000600260008373ffffffffffffffffffffffffffffffffffffffff1673ffffffffffffffffffffffffffffffffffffffff16815260200190815260200160002080549050905060008167ffffffffffffffff811115610a7457610a73611b04565b5b604051908082528060200260200182016040528015610aad57816020015b610a9a6111bd565b815260200190600190039081610a925790505b50905060005b82811015610d09576000600260008673ffffffffffffffffffffffffffffffffffffffff1673ffffffffffffffffffffffffffffffffffffffff1681526020019081526020016000208281548110610b0e57610b0d611ad5565b5b9060005260206000200154905060018082610b299190611919565b81548110610b3a57610b39611ad5565b5b906000526020600020906004020160405180608001604052908160008201548152602001600182018054610b6d906119cb565b80601f0160208091040260200160405190810160405280929190818152602001828054610b99906119cb565b8015610be65780601f10610bbb57610100808354040283529160200191610be6565b820191906000526020600020905b815481529060010190602001808311610bc957829003601f168201915b50505050508152602001600282018054610bff906119cb565b80601f0160208091040260200160405190810160405280929190818152602001828054610c2b906119cb565b8015610c785780601f10610c4d57610100808354040283529160200191610c78565b820191906000526020600020905b815481529060010190602001808311610c5b57829003601f168201915b505050505081526020016003820160009054906101000a900473ffffffffffffffffffffffffffffffffffffffff1673ffffffffffffffffffffffffffffffffffffffff1673ffffffffffffffffffffffffffffffffffffffff1681525050838381518110610cea57610ce9611ad5565b5b6020026020010181905250508080610d0190611a2e565b915050610ab3565b5080935050505090565b606060003390506000600360008373ffffffffffffffffffffffffffffffffffffffff1673ffffffffffffffffffffffffffffffffffffffff16815260200190815260200160002080549050905060008167ffffffffffffffff811115610d7d57610d7c611b04565b5b604051908082528060200260200182016040528015610db657816020015b610da36111bd565b815260200190600190039081610d9b5790505b50905060005b82811015611012576000600360008673ffffffffffffffffffffffffffffffffffffffff1673ffffffffffffffffffffffffffffffffffffffff1681526020019081526020016000208281548110610e1757610e16611ad5565b5b9060005260206000200154905060018082610e329190611919565b81548110610e4357610e42611ad5565b5b906000526020600020906004020160405180608001604052908160008201548152602001600182018054610e76906119cb565b80601f0160208091040260200160405190810160405280929190818152602001828054610ea2906119cb565b8015610eef5780601f10610ec457610100808354040283529160200191610eef565b820191906000526020600020905b815481529060010190602001808311610ed257829003601f168201915b50505050508152602001600282018054610f08906119cb565b80601f0160208091040260200160405190810160405280929190818152602001828054610f34906119cb565b8015610f815780601f10610f5657610100808354040283529160200191610f81565b820191906000526020600020905b815481529060010190602001808311610f6457829003601f168201915b505050505081526020016003820160009054906101000a900473ffffffffffffffffffffffffffffffffffffffff1673ffffffffffffffffffffffffffffffffffffffff1673ffffffffffffffffffffffffffffffffffffffff1681525050838381518110610ff357610ff2611ad5565b5b602002602001018190525050808061100a90611a2e565b915050610dbc565b5080935050505090565b6003602052816000526040600020818154811061103857600080fd5b90600052602060002001600091509150505481565b6001818154811061105d57600080fd5b9060005260206000209060040201600091509050806000015490806001018054611086906119cb565b80601f01602080910402602001604051908101604052809291908181526020018280546110b2906119cb565b80156110ff5780601f106110d4576101008083540402835291602001916110ff565b820191906000526020600020905b8154815290600101906020018083116110e257829003601f168201915b505050505090806002018054611114906119cb565b80601f0160208091040260200160405190810160405280929190818152602001828054611140906119cb565b801561118d5780601f106111625761010080835404028352916020019161118d565b820191906000526020600020905b81548152906001019060200180831161117057829003601f168201915b5050505050908060030160009054906101000a900473ffffffffffffffffffffffffffffffffffffffff16905084565b6040518060800160405280600081526020016060815260200160608152602001600073ffffffffffffffffffffffffffffffffffffffff1681525090565b828054611207906119cb565b90600052602060002090601f0160209004810192826112295760008555611270565b82601f1061124257805160ff1916838001178555611270565b82800160010185558215611270579182015b8281111561126f578251825591602001919060010190611254565b5b50905061127d919061129b565b5090565b604051806040016040528060608152602001606081525090565b5b808211156112b457600081600090555060010161129c565b5090565b60006112cb6112c684611882565b61185d565b9050828152602081018484840111156112e7576112e6611b38565b5b6112f2848285611989565b509392505050565b60008135905061130981611b81565b92915050565b600082601f83011261132457611323611b33565b5b81356113348482602086016112b8565b91505092915050565b60008135905061134c81611b98565b92915050565b60006020828403121561136857611367611b42565b5b6000611376848285016112fa565b91505092915050565b6000806040838503121561139657611395611b42565b5b60006113a4858286016112fa565b92505060206113b58582860161133d565b9150509250929050565b600080604083850312156113d6576113d5611b42565b5b600083013567ffffffffffffffff8111156113f4576113f3611b3d565b5b6114008582860161130f565b925050602083013567ffffffffffffffff81111561142157611420611b3d565b5b61142d8582860161130f565b9150509250929050565b60006020828403121561144d5761144c611b42565b5b600061145b8482850161133d565b91505092915050565b6000806040838503121561147b5761147a611b42565b5b60006114898582860161133d565b925050602083013567ffffffffffffffff8111156114aa576114a9611b3d565b5b6114b68582860161130f565b9150509250929050565b60006114cc83836115fc565b905092915050565b6114dd8161194d565b82525050565b6114ec8161194d565b82525050565b60006114fd826118c3565b61150781856118e6565b935083602082028501611519856118b3565b8060005b85811015611555578484038952815161153685826114c0565b9450611541836118d9565b925060208a0199505060018101905061151d565b50829750879550505050505092915050565b6000611572826118ce565b61157c81856118f7565b935061158c818560208601611998565b61159581611b47565b840191505092915050565b60006115ab826118ce565b6115b58185611908565b93506115c5818560208601611998565b6115ce81611b47565b840191505092915050565b60006115e6601283611908565b91506115f182611b58565b602082019050919050565b60006080830160008301516116146000860182611714565b506020830151848203602086015261162c8282611567565b915050604083015184820360408601526116468282611567565b915050606083015161165b60608601826114d4565b508091505092915050565b600060808301600083015161167e6000860182611714565b50602083015184820360208601526116968282611567565b915050604083015184820360408601526116b08282611567565b91505060608301516116c560608601826114d4565b508091505092915050565b600060408301600083015184820360008601526116ed8282611567565b915050602083015184820360208601526117078282611567565b9150508091505092915050565b61171d8161197f565b82525050565b61172c8161197f565b82525050565b6000602082019050818103600083015261174c81846114f2565b905092915050565b6000604082019050818103600083015261176e81856115a0565b9050818103602083015261178281846115a0565b90509392505050565b600060208201905081810360008301526117a4816115d9565b9050919050565b600060208201905081810360008301526117c58184611666565b905092915050565b600060208201905081810360008301526117e781846116d0565b905092915050565b60006020820190506118046000830184611723565b92915050565b600060808201905061181f6000830187611723565b818103602083015261183181866115a0565b9050818103604083015261184581856115a0565b905061185460608301846114e3565b95945050505050565b6000611867611878565b905061187382826119fd565b919050565b6000604051905090565b600067ffffffffffffffff82111561189d5761189c611b04565b5b6118a682611b47565b9050602081019050919050565b6000819050602082019050919050565b600081519050919050565b600081519050919050565b6000602082019050919050565b600082825260208201905092915050565b600082825260208201905092915050565b600082825260208201905092915050565b60006119248261197f565b915061192f8361197f565b92508282101561194257611941611a77565b5b828203905092915050565b60006119588261195f565b9050919050565b600073ffffffffffffffffffffffffffffffffffffffff82169050919050565b6000819050919050565b82818337600083830152505050565b60005b838110156119b657808201518184015260208101905061199b565b838111156119c5576000848401525b50505050565b600060028204905060018216806119e357607f821691505b602082108114156119f7576119f6611aa6565b5b50919050565b611a0682611b47565b810181811067ffffffffffffffff82111715611a2557611a24611b04565b5b80604052505050565b6000611a398261197f565b91507fffffffffffffffffffffffffffffffffffffffffffffffffffffffffffffffff821415611a6c57611a6b611a77565b5b600182019050919050565b7f4e487b7100000000000000000000000000000000000000000000000000000000600052601160045260246000fd5b7f4e487b7100000000000000000000000000000000000000000000000000000000600052602260045260246000fd5b7f4e487b7100000000000000000000000000000000000000000000000000000000600052603260045260246000fd5b7f4e487b7100000000000000000000000000000000000000000000000000000000600052604160045260246000fd5b600080fd5b600080fd5b600080fd5b600080fd5b6000601f19601f8301169050919050565b7f496e76616c696420434944207061737365640000000000000000000000000000600082015250565b611b8a8161194d565b8114611b9557600080fd5b50565b611ba18161197f565b8114611bac57600080fd5b5056fea26469706673582212208db01b585bf09d67514842d53ec4b81f05b219d42a8f15be611f77db44bc9fb364736f6c63430008070033",
  "immutableReferences": {},
  "source": "// SPDX-License-Identifier: MIT\r\npragma solidity ^0.8.7;\r\n\r\ncontract SmartShare{\r\n\r\n    uint public imageCount = 0;\r\n\r\n    struct File{\r\n        uint id;\r\n        string cidHash;\r\n        string name;\r\n        address owner;\r\n    }\r\n\r\n    struct keyPair{\r\n        string publicKey;\r\n        string privateKey;\r\n    }\r\n\r\n    File[] public files;\r\n    \r\n    mapping(address => uint[]) public userData;\r\n    mapping(address => uint[]) public received;\r\n    mapping(address => keyPair) public keyStore;\r\n\r\n    function checkUser() public view returns(keyPair memory){\r\n        address userAddress = msg.sender;\r\n        keyPair memory userkeys = keyStore[userAddress];\r\n        return userkeys;\r\n    }\r\n\r\n    function addUser(string memory publicKey,string memory privateKey) public{\r\n        address userAddress = msg.sender;\r\n        keyPair memory userKeys = keyPair(publicKey,privateKey);\r\n        keyStore[userAddress] = userKeys; \r\n    }\r\n \r\n    function uploadFiles(string memory _cidHash,string memory _name) public{\r\n        imageCount++;\r\n        File memory file = File(imageCount,_cidHash,_name,msg.sender);\r\n        files.push(file);\r\n        userData[msg.sender].push(imageCount);\r\n    }\r\n\r\n    function shareFile(address _receiver,uint encrypted_id) public{\r\n        received[_receiver].push(encrypted_id);\r\n    }\r\n\r\n    function retrieveUserFiles() public view returns(File[] memory){\r\n        address userAddress = msg.sender;\r\n        uint len = userData[userAddress].length;\r\n        File[] memory allFiles = new File[](len);\r\n        for(uint i=0;i<len;i++){\r\n            uint id = userData[userAddress][i];\r\n            allFiles[i] = files[id-1];\r\n        }\r\n        return allFiles;\r\n    }\r\n\r\n    function retrieveReceivedFiles() public view returns(File[] memory){\r\n        address userAddress = msg.sender;\r\n        uint len = received[userAddress].length;\r\n        File[] memory allFiles = new File[](len);\r\n        for(uint i=0;i<len;i++){\r\n            uint id = received[userAddress][i];\r\n            allFiles[i] = files[id-1];\r\n        }\r\n        return allFiles;\r\n    }\r\n\r\n    function retrieveSingleFile(uint _id,string memory _cid) public view returns(File memory){\r\n        File memory file = files[_id-1];\r\n        require(bytes(_cid).length==bytes(file.cidHash).length,\"Invalid CID passed\");\r\n        return file;\r\n    }\r\n\r\n}",
  "sourcePath": "C:\\Users\\sarth\\Desktop\\Smart-Share\\Backend\\contracts\\SmartShareContract.sol",
  "compiler": {
    "name": "solc",
    "version": "0.8.7+commit.e28d00a7.Emscripten.clang"
  },
  "schemaVersion": "3.4.7",
  "updatedAt": "2022-12-15T09:09:20.105Z",
  "devdoc": {
    "kind": "dev",
    "methods": {},
    "version": 1
  },
  "userdoc": {
    "kind": "user",
    "methods": {},
    "version": 1
  }
}