{
  "contractName": "SmartShare",
  "abi": [
    {
      "inputs": [
        {
          "internalType": "uint256",
          "name": "",
          "type": "uint256"
        }
      ],
      "name": "files",
      "outputs": [
        {
          "internalType": "uint256",
          "name": "id",
          "type": "uint256"
        },
        {
          "internalType": "string",
          "name": "cidHash",
          "type": "string"
        },
        {
          "internalType": "string",
          "name": "name",
          "type": "string"
        },
        {
          "internalType": "address",
          "name": "owner",
          "type": "address"
        }
      ],
      "stateMutability": "view",
      "type": "function",
      "constant": true
    },
    {
      "inputs": [],
      "name": "imageCount",
      "outputs": [
        {
          "internalType": "uint256",
          "name": "",
          "type": "uint256"
        }
      ],
      "stateMutability": "view",
      "type": "function",
      "constant": true
    },
    {
      "inputs": [
        {
          "internalType": "address",
          "name": "",
          "type": "address"
        },
        {
          "internalType": "uint256",
          "name": "",
          "type": "uint256"
        }
      ],
      "name": "received",
      "outputs": [
        {
          "internalType": "uint256",
          "name": "",
          "type": "uint256"
        }
      ],
      "stateMutability": "view",
      "type": "function",
      "constant": true
    },
    {
      "inputs": [
        {
          "internalType": "address",
          "name": "",
          "type": "address"
        },
        {
          "internalType": "uint256",
          "name": "",
          "type": "uint256"
        }
      ],
      "name": "userData",
      "outputs": [
        {
          "internalType": "uint256",
          "name": "",
          "type": "uint256"
        }
      ],
      "stateMutability": "view",
      "type": "function",
      "constant": true
    },
    {
      "inputs": [
        {
          "internalType": "string",
          "name": "_cidHash",
          "type": "string"
        },
        {
          "internalType": "string",
          "name": "_name",
          "type": "string"
        }
      ],
      "name": "uploadFiles",
      "outputs": [],
      "stateMutability": "nonpayable",
      "type": "function"
    },
    {
      "inputs": [
        {
          "internalType": "address",
          "name": "_receiver",
          "type": "address"
        },
        {
          "internalType": "uint256",
          "name": "_id",
          "type": "uint256"
        }
      ],
      "name": "shareFile",
      "outputs": [],
      "stateMutability": "nonpayable",
      "type": "function"
    },
    {
      "inputs": [],
      "name": "retrieveUserFiles",
      "outputs": [
        {
          "components": [
            {
              "internalType": "uint256",
              "name": "id",
              "type": "uint256"
            },
            {
              "internalType": "string",
              "name": "cidHash",
              "type": "string"
            },
            {
              "internalType": "string",
              "name": "name",
              "type": "string"
            },
            {
              "internalType": "address",
              "name": "owner",
              "type": "address"
            }
          ],
          "internalType": "struct SmartShare.File[]",
          "name": "",
          "type": "tuple[]"
        }
      ],
      "stateMutability": "view",
      "type": "function",
      "constant": true
    },
    {
      "inputs": [],
      "name": "retrieveReceivedFiles",
      "outputs": [
        {
          "components": [
            {
              "internalType": "uint256",
              "name": "id",
              "type": "uint256"
            },
            {
              "internalType": "string",
              "name": "cidHash",
              "type": "string"
            },
            {
              "internalType": "string",
              "name": "name",
              "type": "string"
            },
            {
              "internalType": "address",
              "name": "owner",
              "type": "address"
            }
          ],
          "internalType": "struct SmartShare.File[]",
          "name": "",
          "type": "tuple[]"
        }
      ],
      "stateMutability": "view",
      "type": "function",
      "constant": true
    },
    {
      "inputs": [
        {
          "internalType": "uint256",
          "name": "_id",
          "type": "uint256"
        },
        {
          "internalType": "string",
          "name": "_cid",
          "type": "string"
        }
      ],
      "name": "retrieveSingleFile",
      "outputs": [
        {
          "components": [
            {
              "internalType": "uint256",
              "name": "id",
              "type": "uint256"
            },
            {
              "internalType": "string",
              "name": "cidHash",
              "type": "string"
            },
            {
              "internalType": "string",
              "name": "name",
              "type": "string"
            },
            {
              "internalType": "address",
              "name": "owner",
              "type": "address"
            }
          ],
          "internalType": "struct SmartShare.File",
          "name": "",
          "type": "tuple"
        }
      ],
      "stateMutability": "view",
      "type": "function",
      "constant": true
    }
  ],
  "bytecode": "0x60806040526000805534801561001457600080fd5b50611719806100246000396000f3fe608060405234801561001057600080fd5b50600436106100935760003560e01c8063c11126e511610066578063c11126e514610132578063cb7724be1461014e578063ccb08e031461016c578063f11e547d1461018a578063f4c714b4146101ba57610093565b806307539f0b146100985780630b9e84e9146100c85780633c05eca1146100e457806392053b6314610114575b600080fd5b6100b260048036038101906100ad9190611035565b6101ed565b6040516100bf9190611301565b60405180910390f35b6100e260048036038101906100dd9190610f90565b610407565b005b6100fe60048036038101906100f99190610f50565b610581565b60405161010b9190611323565b60405180910390f35b61011c6105b2565b6040516101299190611323565b60405180910390f35b61014c60048036038101906101479190610f50565b6105b8565b005b610156610622565b60405161016391906112bf565b60405180910390f35b61017461092b565b60405161018191906112bf565b60405180910390f35b6101a4600480360381019061019f9190610f50565b610c34565b6040516101b19190611323565b60405180910390f35b6101d460048036038101906101cf9190611008565b610c65565b6040516101e4949392919061133e565b60405180910390f35b6101f5610dd5565b600060018085610205919061144d565b8154811061021657610215611609565b5b906000526020600020906004020160405180608001604052908160008201548152602001600182018054610249906114ff565b80601f0160208091040260200160405190810160405280929190818152602001828054610275906114ff565b80156102c25780601f10610297576101008083540402835291602001916102c2565b820191906000526020600020905b8154815290600101906020018083116102a557829003601f168201915b505050505081526020016002820180546102db906114ff565b80601f0160208091040260200160405190810160405280929190818152602001828054610307906114ff565b80156103545780601f1061032957610100808354040283529160200191610354565b820191906000526020600020905b81548152906001019060200180831161033757829003601f168201915b505050505081526020016003820160009054906101000a900473ffffffffffffffffffffffffffffffffffffffff1673ffffffffffffffffffffffffffffffffffffffff1673ffffffffffffffffffffffffffffffffffffffff168152505090508060200151518351146103fd576040517f08c379a00000000000000000000000000000000000000000000000000000000081526004016103f4906112e1565b60405180910390fd5b8091505092915050565b60008081548092919061041990611562565b91905055506000604051806080016040528060005481526020018481526020018381526020013373ffffffffffffffffffffffffffffffffffffffff16815250905060018190806001815401808255809150506001900390600052602060002090600402016000909190919091506000820151816000015560208201518160010190805190602001906104ad929190610e13565b5060408201518160020190805190602001906104ca929190610e13565b5060608201518160030160006101000a81548173ffffffffffffffffffffffffffffffffffffffff021916908373ffffffffffffffffffffffffffffffffffffffff1602179055505050600260003373ffffffffffffffffffffffffffffffffffffffff1673ffffffffffffffffffffffffffffffffffffffff1681526020019081526020016000206000549080600181540180825580915050600190039060005260206000200160009091909190915055505050565b6002602052816000526040600020818154811061059d57600080fd5b90600052602060002001600091509150505481565b60005481565b600360008373ffffffffffffffffffffffffffffffffffffffff1673ffffffffffffffffffffffffffffffffffffffff1681526020019081526020016000208190806001815401808255809150506001900390600052602060002001600090919091909150555050565b606060003390506000600260008373ffffffffffffffffffffffffffffffffffffffff1673ffffffffffffffffffffffffffffffffffffffff16815260200190815260200160002080549050905060008167ffffffffffffffff81111561068c5761068b611638565b5b6040519080825280602002602001820160405280156106c557816020015b6106b2610dd5565b8152602001906001900390816106aa5790505b50905060005b82811015610921576000600260008673ffffffffffffffffffffffffffffffffffffffff1673ffffffffffffffffffffffffffffffffffffffff168152602001908152602001600020828154811061072657610725611609565b5b9060005260206000200154905060018082610741919061144d565b8154811061075257610751611609565b5b906000526020600020906004020160405180608001604052908160008201548152602001600182018054610785906114ff565b80601f01602080910402602001604051908101604052809291908181526020018280546107b1906114ff565b80156107fe5780601f106107d3576101008083540402835291602001916107fe565b820191906000526020600020905b8154815290600101906020018083116107e157829003601f168201915b50505050508152602001600282018054610817906114ff565b80601f0160208091040260200160405190810160405280929190818152602001828054610843906114ff565b80156108905780601f1061086557610100808354040283529160200191610890565b820191906000526020600020905b81548152906001019060200180831161087357829003601f168201915b505050505081526020016003820160009054906101000a900473ffffffffffffffffffffffffffffffffffffffff1673ffffffffffffffffffffffffffffffffffffffff1673ffffffffffffffffffffffffffffffffffffffff168152505083838151811061090257610901611609565b5b602002602001018190525050808061091990611562565b9150506106cb565b5080935050505090565b606060003390506000600360008373ffffffffffffffffffffffffffffffffffffffff1673ffffffffffffffffffffffffffffffffffffffff16815260200190815260200160002080549050905060008167ffffffffffffffff81111561099557610994611638565b5b6040519080825280602002602001820160405280156109ce57816020015b6109bb610dd5565b8152602001906001900390816109b35790505b50905060005b82811015610c2a576000600360008673ffffffffffffffffffffffffffffffffffffffff1673ffffffffffffffffffffffffffffffffffffffff1681526020019081526020016000208281548110610a2f57610a2e611609565b5b9060005260206000200154905060018082610a4a919061144d565b81548110610a5b57610a5a611609565b5b906000526020600020906004020160405180608001604052908160008201548152602001600182018054610a8e906114ff565b80601f0160208091040260200160405190810160405280929190818152602001828054610aba906114ff565b8015610b075780601f10610adc57610100808354040283529160200191610b07565b820191906000526020600020905b815481529060010190602001808311610aea57829003601f168201915b50505050508152602001600282018054610b20906114ff565b80601f0160208091040260200160405190810160405280929190818152602001828054610b4c906114ff565b8015610b995780601f10610b6e57610100808354040283529160200191610b99565b820191906000526020600020905b815481529060010190602001808311610b7c57829003601f168201915b505050505081526020016003820160009054906101000a900473ffffffffffffffffffffffffffffffffffffffff1673ffffffffffffffffffffffffffffffffffffffff1673ffffffffffffffffffffffffffffffffffffffff1681525050838381518110610c0b57610c0a611609565b5b6020026020010181905250508080610c2290611562565b9150506109d4565b5080935050505090565b60036020528160005260406000208181548110610c5057600080fd5b90600052602060002001600091509150505481565b60018181548110610c7557600080fd5b9060005260206000209060040201600091509050806000015490806001018054610c9e906114ff565b80601f0160208091040260200160405190810160405280929190818152602001828054610cca906114ff565b8015610d175780601f10610cec57610100808354040283529160200191610d17565b820191906000526020600020905b815481529060010190602001808311610cfa57829003601f168201915b505050505090806002018054610d2c906114ff565b80601f0160208091040260200160405190810160405280929190818152602001828054610d58906114ff565b8015610da55780601f10610d7a57610100808354040283529160200191610da5565b820191906000526020600020905b815481529060010190602001808311610d8857829003601f168201915b5050505050908060030160009054906101000a900473ffffffffffffffffffffffffffffffffffffffff16905084565b6040518060800160405280600081526020016060815260200160608152602001600073ffffffffffffffffffffffffffffffffffffffff1681525090565b828054610e1f906114ff565b90600052602060002090601f016020900481019282610e415760008555610e88565b82601f10610e5a57805160ff1916838001178555610e88565b82800160010185558215610e88579182015b82811115610e87578251825591602001919060010190610e6c565b5b509050610e959190610e99565b5090565b5b80821115610eb2576000816000905550600101610e9a565b5090565b6000610ec9610ec4846113b6565b611391565b905082815260208101848484011115610ee557610ee461166c565b5b610ef08482856114bd565b509392505050565b600081359050610f07816116b5565b92915050565b600082601f830112610f2257610f21611667565b5b8135610f32848260208601610eb6565b91505092915050565b600081359050610f4a816116cc565b92915050565b60008060408385031215610f6757610f66611676565b5b6000610f7585828601610ef8565b9250506020610f8685828601610f3b565b9150509250929050565b60008060408385031215610fa757610fa6611676565b5b600083013567ffffffffffffffff811115610fc557610fc4611671565b5b610fd185828601610f0d565b925050602083013567ffffffffffffffff811115610ff257610ff1611671565b5b610ffe85828601610f0d565b9150509250929050565b60006020828403121561101e5761101d611676565b5b600061102c84828501610f3b565b91505092915050565b6000806040838503121561104c5761104b611676565b5b600061105a85828601610f3b565b925050602083013567ffffffffffffffff81111561107b5761107a611671565b5b61108785828601610f0d565b9150509250929050565b600061109d83836111cd565b905092915050565b6110ae81611481565b82525050565b6110bd81611481565b82525050565b60006110ce826113f7565b6110d8818561141a565b9350836020820285016110ea856113e7565b8060005b8581101561112657848403895281516111078582611091565b94506111128361140d565b925060208a019950506001810190506110ee565b50829750879550505050505092915050565b600061114382611402565b61114d818561142b565b935061115d8185602086016114cc565b6111668161167b565b840191505092915050565b600061117c82611402565b611186818561143c565b93506111968185602086016114cc565b61119f8161167b565b840191505092915050565b60006111b760128361143c565b91506111c28261168c565b602082019050919050565b60006080830160008301516111e560008601826112a1565b50602083015184820360208601526111fd8282611138565b915050604083015184820360408601526112178282611138565b915050606083015161122c60608601826110a5565b508091505092915050565b600060808301600083015161124f60008601826112a1565b50602083015184820360208601526112678282611138565b915050604083015184820360408601526112818282611138565b915050606083015161129660608601826110a5565b508091505092915050565b6112aa816114b3565b82525050565b6112b9816114b3565b82525050565b600060208201905081810360008301526112d981846110c3565b905092915050565b600060208201905081810360008301526112fa816111aa565b9050919050565b6000602082019050818103600083015261131b8184611237565b905092915050565b600060208201905061133860008301846112b0565b92915050565b600060808201905061135360008301876112b0565b81810360208301526113658186611171565b905081810360408301526113798185611171565b905061138860608301846110b4565b95945050505050565b600061139b6113ac565b90506113a78282611531565b919050565b6000604051905090565b600067ffffffffffffffff8211156113d1576113d0611638565b5b6113da8261167b565b9050602081019050919050565b6000819050602082019050919050565b600081519050919050565b600081519050919050565b6000602082019050919050565b600082825260208201905092915050565b600082825260208201905092915050565b600082825260208201905092915050565b6000611458826114b3565b9150611463836114b3565b925082821015611476576114756115ab565b5b828203905092915050565b600061148c82611493565b9050919050565b600073ffffffffffffffffffffffffffffffffffffffff82169050919050565b6000819050919050565b82818337600083830152505050565b60005b838110156114ea5780820151818401526020810190506114cf565b838111156114f9576000848401525b50505050565b6000600282049050600182168061151757607f821691505b6020821081141561152b5761152a6115da565b5b50919050565b61153a8261167b565b810181811067ffffffffffffffff8211171561155957611558611638565b5b80604052505050565b600061156d826114b3565b91507fffffffffffffffffffffffffffffffffffffffffffffffffffffffffffffffff8214156115a05761159f6115ab565b5b600182019050919050565b7f4e487b7100000000000000000000000000000000000000000000000000000000600052601160045260246000fd5b7f4e487b7100000000000000000000000000000000000000000000000000000000600052602260045260246000fd5b7f4e487b7100000000000000000000000000000000000000000000000000000000600052603260045260246000fd5b7f4e487b7100000000000000000000000000000000000000000000000000000000600052604160045260246000fd5b600080fd5b600080fd5b600080fd5b600080fd5b6000601f19601f8301169050919050565b7f496e76616c696420434944207061737365640000000000000000000000000000600082015250565b6116be81611481565b81146116c957600080fd5b50565b6116d5816114b3565b81146116e057600080fd5b5056fea264697066735822122046f2c851e317177f37fbce57ca37773fc78f5adb50f9fcff4684de7b849e70d064736f6c63430008070033",
  "immutableReferences": {},
  "source": "// SPDX-License-Identifier: MIT\r\npragma solidity ^0.8.7;\r\n\r\ncontract SmartShare{\r\n\r\n    uint public imageCount = 0;\r\n\r\n    struct File{\r\n        uint id;\r\n        string cidHash;\r\n        string name;\r\n        address owner;\r\n    }\r\n\r\n    File[] public files;\r\n    \r\n    mapping(address => uint[]) public userData;\r\n    mapping(address => uint[]) public received;\r\n \r\n    function uploadFiles(string memory _cidHash,string memory _name) public{\r\n        imageCount++;\r\n        File memory file = File(imageCount,_cidHash,_name,msg.sender);\r\n        files.push(file);\r\n        userData[msg.sender].push(imageCount);\r\n    }\r\n\r\n    function shareFile(address _receiver,uint _id) public{\r\n        received[_receiver].push(_id);\r\n    }\r\n\r\n    function retrieveUserFiles() public view returns(File[] memory){\r\n        address userAddress = msg.sender;\r\n        uint len = userData[userAddress].length;\r\n        File[] memory allFiles = new File[](len);\r\n        for(uint i=0;i<len;i++){\r\n            uint id = userData[userAddress][i];\r\n            allFiles[i] = files[id-1];\r\n        }\r\n        return allFiles;\r\n    }\r\n\r\n    function retrieveReceivedFiles() public view returns(File[] memory){\r\n        address userAddress = msg.sender;\r\n        uint len = received[userAddress].length;\r\n        File[] memory allFiles = new File[](len);\r\n        for(uint i=0;i<len;i++){\r\n            uint id = received[userAddress][i];\r\n            allFiles[i] = files[id-1];\r\n        }\r\n        return allFiles;\r\n    }\r\n\r\n    function retrieveSingleFile(uint _id,string memory _cid) public view returns(File memory){\r\n        File memory file = files[_id-1];\r\n        require(bytes(_cid).length==bytes(file.cidHash).length,\"Invalid CID passed\");\r\n        return file;\r\n    }\r\n\r\n}",
  "sourcePath": "C:\\Users\\sarth\\Desktop\\Smart-Share\\Backend\\contracts\\SmartShareContract.sol",
  "compiler": {
    "name": "solc",
    "version": "0.8.7+commit.e28d00a7.Emscripten.clang"
  },
  "schemaVersion": "3.4.7",
  "updatedAt": "2022-11-15T11:26:18.027Z",
  "networkType": "ethereum",
  "devdoc": {
    "kind": "dev",
    "methods": {},
    "version": 1
  },
  "userdoc": {
    "kind": "user",
    "methods": {},
    "version": 1
  }
}